{
  "address": "0x2A44F01DF4bCe213f1504B889013B81E6dbc3d94",
  "abi": [
    {
      "inputs": [
        {
          "internalType": "address",
          "name": "_automate",
          "type": "address"
        }
      ],
      "stateMutability": "nonpayable",
      "type": "constructor"
    },
    {
      "inputs": [],
      "name": "automate",
      "outputs": [
        {
          "internalType": "contract IAutomate",
          "name": "",
          "type": "address"
        }
      ],
      "stateMutability": "view",
      "type": "function"
    },
    {
      "inputs": [
        {
          "internalType": "address[]",
          "name": "targets",
          "type": "address[]"
        }
      ],
      "name": "getBalances",
      "outputs": [
        {
          "internalType": "uint256[]",
          "name": "balances",
          "type": "uint256[]"
        }
      ],
      "stateMutability": "view",
      "type": "function"
    },
    {
      "inputs": [
        {
          "internalType": "address payable",
          "name": "target",
          "type": "address"
        },
        {
          "internalType": "uint256",
          "name": "amount",
          "type": "uint256"
        }
      ],
      "name": "transfer",
      "outputs": [],
      "stateMutability": "payable",
      "type": "function"
    }
  ],
  "transactionHash": "0xe19ef70253775c61757278700ae13b4111520322d2ce9386c445928bdc6dc6f3",
  "args": [
    "0x2A6C106ae13B558BB9E2Ec64Bd2f1f7BEFF3A5E0"
  ],
  "numDeployments": 3,
  "solcInputHash": "dcb9f3d08a409207497b66bbe120e7af",
  "bytecode": "0x608060405234801561001057600080fd5b506040516105bf3803806105bf83398101604081905261002f91610054565b600080546001600160a01b0319166001600160a01b0392909216919091179055610084565b60006020828403121561006657600080fd5b81516001600160a01b038116811461007d57600080fd5b9392505050565b61052c806100936000396000f3fe6080604052600436106100345760003560e01c8063049aacfe146100395780632d2ae1c114610076578063a9059cbb146100a3575b600080fd5b34801561004557600080fd5b50600054610059906001600160a01b031681565b6040516001600160a01b0390911681526020015b60405180910390f35b34801561008257600080fd5b50610096610091366004610335565b6100b8565b60405161006d91906103aa565b6100b66100b1366004610406565b610171565b005b60608167ffffffffffffffff8111156100d3576100d3610432565b6040519080825280602002602001820160405280156100fc578160200160208202803683370190505b50905060005b8281101561016a5783838281811061011c5761011c610448565b9050602002016020810190610131919061045e565b6001600160a01b03163182828151811061014d5761014d610448565b60209081029190910101528061016281610482565b915050610102565b5092915050565b6000805460408051635c08631b60e11b815281516001600160a01b039093169263b810c636926004808401939192918290030181865afa1580156101b9573d6000803e3d6000fd5b505050506040513d601f19601f820116820180604052508101906101dd91906104a9565b50905061025e60008054906101000a90046001600160a01b03166001600160a01b031663573ea5756040518163ffffffff1660e01b8152600401602060405180830381865afa158015610234573d6000803e3d6000fd5b505050506040513d601f19601f8201168201806040525081019061025891906104d9565b82610279565b6102688383610279565b476102733382610279565b50505050565b6000826001600160a01b03168260405160006040518083038185875af1925050503d80600081146102c6576040519150601f19603f3d011682016040523d82523d6000602084013e6102cb565b606091505b50509050806103305760405162461bcd60e51b815260206004820152602760248201527f466565466f727761726465722e5f7472616e736665723a207472616e736665726044820152660819985a5b195960ca1b606482015260840160405180910390fd5b505050565b6000806020838503121561034857600080fd5b823567ffffffffffffffff8082111561036057600080fd5b818501915085601f83011261037457600080fd5b81358181111561038357600080fd5b8660208260051b850101111561039857600080fd5b60209290920196919550909350505050565b6020808252825182820181905260009190848201906040850190845b818110156103e2578351835292840192918401916001016103c6565b50909695505050505050565b6001600160a01b038116811461040357600080fd5b50565b6000806040838503121561041957600080fd5b8235610424816103ee565b946020939093013593505050565b634e487b7160e01b600052604160045260246000fd5b634e487b7160e01b600052603260045260246000fd5b60006020828403121561047057600080fd5b813561047b816103ee565b9392505050565b6000600182016104a257634e487b7160e01b600052601160045260246000fd5b5060010190565b600080604083850312156104bc57600080fd5b8251915060208301516104ce816103ee565b809150509250929050565b6000602082840312156104eb57600080fd5b815161047b816103ee56fea26469706673582212207a00423db3761207e775cba44f094618381ee4861623e36324f2a8baaf6afecc64736f6c63430008130033",
  "devdoc": {
    "kind": "dev",
    "methods": {},
    "version": 1
  },
  "userdoc": {
    "kind": "user",
    "methods": {},
    "version": 1
  },
  "storageLayout": {
    "storage": [
      {
        "astId": 6,
        "contract": "contracts/FeeForwarder.sol:FeeForwarder",
        "label": "automate",
        "offset": 0,
        "slot": "0",
        "type": "t_contract(IAutomate)139"
      }
    ],
    "types": {
      "t_contract(IAutomate)139": {
        "encoding": "inplace",
        "label": "contract IAutomate",
        "numberOfBytes": "20"
      }
    }
  }
}